{
  "_format": "hh-sol-artifact-1",
  "contractName": "VotingERC2771",
  "sourceName": "contracts/Vote.sol",
  "abi": [
    {
      "inputs": [
        {
          "internalType": "address",
          "name": "trustedForwarder",
          "type": "address"
        }
      ],
      "stateMutability": "nonpayable",
      "type": "constructor"
    },
    {
      "anonymous": false,
      "inputs": [
        {
          "indexed": false,
          "internalType": "address",
          "name": "voter",
          "type": "address"
        },
        {
          "indexed": false,
          "internalType": "bytes32",
          "name": "candidate",
          "type": "bytes32"
        }
      ],
      "name": "Voted",
      "type": "event"
    },
    {
      "anonymous": false,
      "inputs": [
        {
          "indexed": false,
          "internalType": "address",
          "name": "voter",
          "type": "address"
        },
        {
          "indexed": false,
          "internalType": "string",
          "name": "name",
          "type": "string"
        }
      ],
      "name": "VoterRegistered",
      "type": "event"
    },
    {
      "inputs": [
        {
          "internalType": "string",
          "name": "name",
          "type": "string"
        }
      ],
      "name": "addCandidate",
      "outputs": [],
      "stateMutability": "nonpayable",
      "type": "function"
    },
    {
      "inputs": [
        {
          "internalType": "uint256",
          "name": "",
          "type": "uint256"
        }
      ],
      "name": "candidateList",
      "outputs": [
        {
          "internalType": "bytes32",
          "name": "",
          "type": "bytes32"
        }
      ],
      "stateMutability": "view",
      "type": "function"
    },
    {
      "inputs": [
        {
          "internalType": "bytes32",
          "name": "",
          "type": "bytes32"
        }
      ],
      "name": "candidates",
      "outputs": [
        {
          "internalType": "string",
          "name": "name",
          "type": "string"
        },
        {
          "internalType": "uint256",
          "name": "voteCount",
          "type": "uint256"
        }
      ],
      "stateMutability": "view",
      "type": "function"
    },
    {
      "inputs": [],
      "name": "getCandidates",
      "outputs": [
        {
          "components": [
            {
              "internalType": "string",
              "name": "name",
              "type": "string"
            },
            {
              "internalType": "uint256",
              "name": "voteCount",
              "type": "uint256"
            }
          ],
          "internalType": "struct VotingERC2771.Candidate[]",
          "name": "",
          "type": "tuple[]"
        }
      ],
      "stateMutability": "view",
      "type": "function"
    },
    {
      "inputs": [
        {
          "internalType": "bytes32",
          "name": "candidateId",
          "type": "bytes32"
        }
      ],
      "name": "getVoteCount",
      "outputs": [
        {
          "internalType": "uint256",
          "name": "",
          "type": "uint256"
        }
      ],
      "stateMutability": "view",
      "type": "function"
    },
    {
      "inputs": [
        {
          "internalType": "address",
          "name": "voterAddress",
          "type": "address"
        }
      ],
      "name": "hasUserVoted",
      "outputs": [
        {
          "internalType": "bool",
          "name": "",
          "type": "bool"
        }
      ],
      "stateMutability": "view",
      "type": "function"
    },
    {
      "inputs": [
        {
          "internalType": "address",
          "name": "forwarder",
          "type": "address"
        }
      ],
      "name": "isTrustedForwarder",
      "outputs": [
        {
          "internalType": "bool",
          "name": "",
          "type": "bool"
        }
      ],
      "stateMutability": "view",
      "type": "function"
    },
    {
      "inputs": [
        {
          "internalType": "address",
          "name": "voterAddress",
          "type": "address"
        },
        {
          "internalType": "string",
          "name": "name",
          "type": "string"
        }
      ],
      "name": "registerVoter",
      "outputs": [],
      "stateMutability": "nonpayable",
      "type": "function"
    },
    {
      "inputs": [
        {
          "internalType": "bytes32",
          "name": "candidateId",
          "type": "bytes32"
        }
      ],
      "name": "vote",
      "outputs": [],
      "stateMutability": "nonpayable",
      "type": "function"
    },
    {
      "inputs": [
        {
          "internalType": "address",
          "name": "",
          "type": "address"
        }
      ],
      "name": "voters",
      "outputs": [
        {
          "internalType": "bool",
          "name": "isRegistered",
          "type": "bool"
        },
        {
          "internalType": "bool",
          "name": "hasVoted",
          "type": "bool"
        },
        {
          "internalType": "string",
          "name": "name",
          "type": "string"
        },
        {
          "internalType": "address",
          "name": "delegate",
          "type": "address"
        }
      ],
      "stateMutability": "view",
      "type": "function"
    }
  ],
  "bytecode": "0x60a06040523480156200001157600080fd5b50604051620019c5380380620019c58339818101604052810190620000379190620000de565b808073ffffffffffffffffffffffffffffffffffffffff1660808173ffffffffffffffffffffffffffffffffffffffff1681525050505062000110565b600080fd5b600073ffffffffffffffffffffffffffffffffffffffff82169050919050565b6000620000a68262000079565b9050919050565b620000b88162000099565b8114620000c457600080fd5b50565b600081519050620000d881620000ad565b92915050565b600060208284031215620000f757620000f662000074565b5b60006200010784828501620000c7565b91505092915050565b6080516118996200012c600039600061056c01526118996000f3fe608060405234801561001057600080fd5b506004361061009e5760003560e01c8063a169599311610066578063a16959931461016e578063a3ec138d1461019e578063a69beaba146101d1578063b13c744b146101ed578063ebbb4f841461021d5761009e565b806306a49fce146100a35780631a0478d5146100c1578063462e91ec146100f2578063572b6c051461010e5780637fabe80a1461013e575b600080fd5b6100ab610239565b6040516100b89190610d75565b60405180910390f35b6100db60048036038101906100d69190610de1565b6103b3565b6040516100e9929190610e67565b60405180910390f35b61010c60048036038101906101079190610fcc565b61045f565b005b61012860048036038101906101239190611073565b610568565b60405161013591906110bb565b60405180910390f35b61015860048036038101906101539190611073565b6105c0565b60405161016591906110bb565b60405180910390f35b61018860048036038101906101839190610de1565b610618565b60405161019591906110d6565b60405180910390f35b6101b860048036038101906101b39190611073565b610638565b6040516101c89493929190611100565b60405180910390f35b6101eb60048036038101906101e69190610de1565b61072a565b005b61020760048036038101906102029190611178565b61097c565b60405161021491906111b4565b60405180910390f35b610237600480360381019061023291906111cf565b6109a0565b005b6060600060028054905067ffffffffffffffff81111561025c5761025b610ea1565b5b60405190808252806020026020018201604052801561029557816020015b610282610bb3565b81526020019060019003908161027a5790505b50905060005b6002805490508110156103ab5760016000600283815481106102c0576102bf61122b565b5b906000526020600020015481526020019081526020016000206040518060400160405290816000820180546102f490611289565b80601f016020809104026020016040519081016040528092919081815260200182805461032090611289565b801561036d5780601f106103425761010080835404028352916020019161036d565b820191906000526020600020905b81548152906001019060200180831161035057829003601f168201915b505050505081526020016001820154815250508282815181106103935761039261122b565b5b6020026020010181905250808060010191505061029b565b508091505090565b60016020528060005260406000206000915090508060000180546103d690611289565b80601f016020809104026020016040519081016040528092919081815260200182805461040290611289565b801561044f5780601f106104245761010080835404028352916020019161044f565b820191906000526020600020905b81548152906001019060200180831161043257829003601f168201915b5050505050908060010154905082565b60008160405160200161047291906112f6565b60405160208183030381529060405280519060200120905060006001600083815260200190815260200160002060000180546104ad90611289565b9050146104ef576040517f08c379a00000000000000000000000000000000000000000000000000000000081526004016104e690611359565b60405180910390fd5b6040518060400160405280838152602001600081525060016000838152602001908152602001600020600082015181600001908161052d9190611525565b506020820151816001015590505060028190806001815401808255809150506001900390600052602060002001600090919091909150555050565b60007f000000000000000000000000000000000000000000000000000000000000000073ffffffffffffffffffffffffffffffffffffffff168273ffffffffffffffffffffffffffffffffffffffff16149050919050565b60008060008373ffffffffffffffffffffffffffffffffffffffff1673ffffffffffffffffffffffffffffffffffffffff16815260200190815260200160002060000160019054906101000a900460ff169050919050565b600060016000838152602001908152602001600020600101549050919050565b60006020528060005260406000206000915090508060000160009054906101000a900460ff16908060000160019054906101000a900460ff169080600101805461068190611289565b80601f01602080910402602001604051908101604052809291908181526020018280546106ad90611289565b80156106fa5780601f106106cf576101008083540402835291602001916106fa565b820191906000526020600020905b8154815290600101906020018083116106dd57829003601f168201915b5050505050908060020160009054906101000a900473ffffffffffffffffffffffffffffffffffffffff16905084565b6000610734610b88565b90506000808273ffffffffffffffffffffffffffffffffffffffff1673ffffffffffffffffffffffffffffffffffffffff16815260200190815260200160002060000160009054906101000a900460ff166107c4576040517f08c379a00000000000000000000000000000000000000000000000000000000081526004016107bb90611643565b60405180910390fd5b6000808273ffffffffffffffffffffffffffffffffffffffff1673ffffffffffffffffffffffffffffffffffffffff16815260200190815260200160002060000160019054906101000a900460ff1615610853576040517f08c379a000000000000000000000000000000000000000000000000000000000815260040161084a906116af565b60405180910390fd5b600060016000848152602001908152602001600020600001805461087690611289565b9050036108b8576040517f08c379a00000000000000000000000000000000000000000000000000000000081526004016108af9061171b565b60405180910390fd5b60016000808373ffffffffffffffffffffffffffffffffffffffff1673ffffffffffffffffffffffffffffffffffffffff16815260200190815260200160002060000160016101000a81548160ff02191690831515021790555060018060008481526020019081526020016000206001016000828254610938919061176a565b925050819055507fc78796858497f000f0a77d7f0c624bbaf635bf26239188e8fba52c571db2398d818360405161097092919061179e565b60405180910390a15050565b6002818154811061098c57600080fd5b906000526020600020016000915090505481565b6000808373ffffffffffffffffffffffffffffffffffffffff1673ffffffffffffffffffffffffffffffffffffffff16815260200190815260200160002060000160009054906101000a900460ff1615610a2f576040517f08c379a0000000000000000000000000000000000000000000000000000000008152600401610a2690611813565b60405180910390fd5b6040518060800160405280600115158152602001600015158152602001828152602001600073ffffffffffffffffffffffffffffffffffffffff168152506000808473ffffffffffffffffffffffffffffffffffffffff1673ffffffffffffffffffffffffffffffffffffffff16815260200190815260200160002060008201518160000160006101000a81548160ff02191690831515021790555060208201518160000160016101000a81548160ff0219169083151502179055506040820151816001019081610b009190611525565b5060608201518160020160006101000a81548173ffffffffffffffffffffffffffffffffffffffff021916908373ffffffffffffffffffffffffffffffffffffffff1602179055509050507fffeb7702be7dcd8fee170d954b70afb9a7c78f7f5cff232d037e7b9d8243356a8282604051610b7c929190611833565b60405180910390a15050565b6000610b9333610568565b15610ba757601436033560601c9050610baf565b339050610bb0565b5b90565b604051806040016040528060608152602001600081525090565b600081519050919050565b600082825260208201905092915050565b6000819050602082019050919050565b600081519050919050565b600082825260208201905092915050565b60005b83811015610c33578082015181840152602081019050610c18565b60008484015250505050565b6000601f19601f8301169050919050565b6000610c5b82610bf9565b610c658185610c04565b9350610c75818560208601610c15565b610c7e81610c3f565b840191505092915050565b6000819050919050565b610c9c81610c89565b82525050565b60006040830160008301518482036000860152610cbf8282610c50565b9150506020830151610cd46020860182610c93565b508091505092915050565b6000610ceb8383610ca2565b905092915050565b6000602082019050919050565b6000610d0b82610bcd565b610d158185610bd8565b935083602082028501610d2785610be9565b8060005b85811015610d635784840389528151610d448582610cdf565b9450610d4f83610cf3565b925060208a01995050600181019050610d2b565b50829750879550505050505092915050565b60006020820190508181036000830152610d8f8184610d00565b905092915050565b6000604051905090565b600080fd5b600080fd5b6000819050919050565b610dbe81610dab565b8114610dc957600080fd5b50565b600081359050610ddb81610db5565b92915050565b600060208284031215610df757610df6610da1565b5b6000610e0584828501610dcc565b91505092915050565b600082825260208201905092915050565b6000610e2a82610bf9565b610e348185610e0e565b9350610e44818560208601610c15565b610e4d81610c3f565b840191505092915050565b610e6181610c89565b82525050565b60006040820190508181036000830152610e818185610e1f565b9050610e906020830184610e58565b9392505050565b600080fd5b600080fd5b7f4e487b7100000000000000000000000000000000000000000000000000000000600052604160045260246000fd5b610ed982610c3f565b810181811067ffffffffffffffff82111715610ef857610ef7610ea1565b5b80604052505050565b6000610f0b610d97565b9050610f178282610ed0565b919050565b600067ffffffffffffffff821115610f3757610f36610ea1565b5b610f4082610c3f565b9050602081019050919050565b82818337600083830152505050565b6000610f6f610f6a84610f1c565b610f01565b905082815260208101848484011115610f8b57610f8a610e9c565b5b610f96848285610f4d565b509392505050565b600082601f830112610fb357610fb2610e97565b5b8135610fc3848260208601610f5c565b91505092915050565b600060208284031215610fe257610fe1610da1565b5b600082013567ffffffffffffffff81111561100057610fff610da6565b5b61100c84828501610f9e565b91505092915050565b600073ffffffffffffffffffffffffffffffffffffffff82169050919050565b600061104082611015565b9050919050565b61105081611035565b811461105b57600080fd5b50565b60008135905061106d81611047565b92915050565b60006020828403121561108957611088610da1565b5b60006110978482850161105e565b91505092915050565b60008115159050919050565b6110b5816110a0565b82525050565b60006020820190506110d060008301846110ac565b92915050565b60006020820190506110eb6000830184610e58565b92915050565b6110fa81611035565b82525050565b600060808201905061111560008301876110ac565b61112260208301866110ac565b81810360408301526111348185610e1f565b905061114360608301846110f1565b95945050505050565b61115581610c89565b811461116057600080fd5b50565b6000813590506111728161114c565b92915050565b60006020828403121561118e5761118d610da1565b5b600061119c84828501611163565b91505092915050565b6111ae81610dab565b82525050565b60006020820190506111c960008301846111a5565b92915050565b600080604083850312156111e6576111e5610da1565b5b60006111f48582860161105e565b925050602083013567ffffffffffffffff81111561121557611214610da6565b5b61122185828601610f9e565b9150509250929050565b7f4e487b7100000000000000000000000000000000000000000000000000000000600052603260045260246000fd5b7f4e487b7100000000000000000000000000000000000000000000000000000000600052602260045260246000fd5b600060028204905060018216806112a157607f821691505b6020821081036112b4576112b361125a565b5b50919050565b600081905092915050565b60006112d082610bf9565b6112da81856112ba565b93506112ea818560208601610c15565b80840191505092915050565b600061130282846112c5565b915081905092915050565b7f43616e64696461746520616c7265616479206578697374732e00000000000000600082015250565b6000611343601983610e0e565b915061134e8261130d565b602082019050919050565b6000602082019050818103600083015261137281611336565b9050919050565b60008190508160005260206000209050919050565b60006020601f8301049050919050565b600082821b905092915050565b6000600883026113db7fffffffffffffffffffffffffffffffffffffffffffffffffffffffffffffffff8261139e565b6113e5868361139e565b95508019841693508086168417925050509392505050565b6000819050919050565b600061142261141d61141884610c89565b6113fd565b610c89565b9050919050565b6000819050919050565b61143c83611407565b61145061144882611429565b8484546113ab565b825550505050565b600090565b611465611458565b611470818484611433565b505050565b5b818110156114945761148960008261145d565b600181019050611476565b5050565b601f8211156114d9576114aa81611379565b6114b38461138e565b810160208510156114c2578190505b6114d66114ce8561138e565b830182611475565b50505b505050565b600082821c905092915050565b60006114fc600019846008026114de565b1980831691505092915050565b600061151583836114eb565b9150826002028217905092915050565b61152e82610bf9565b67ffffffffffffffff81111561154757611546610ea1565b5b6115518254611289565b61155c828285611498565b600060209050601f83116001811461158f576000841561157d578287015190505b6115878582611509565b8655506115ef565b601f19841661159d86611379565b60005b828110156115c5578489015182556001820191506020850194506020810190506115a0565b868310156115e257848901516115de601f8916826114eb565b8355505b6001600288020188555050505b505050505050565b7f566f746572206973206e6f7420726567697374657265642e0000000000000000600082015250565b600061162d601883610e0e565b9150611638826115f7565b602082019050919050565b6000602082019050818103600083015261165c81611620565b9050919050565b7f566f7465722068617320616c726561647920766f7465642e0000000000000000600082015250565b6000611699601883610e0e565b91506116a482611663565b602082019050919050565b600060208201905081810360008301526116c88161168c565b9050919050565b7f43616e64696461746520646f6573206e6f742065786973742e00000000000000600082015250565b6000611705601983610e0e565b9150611710826116cf565b602082019050919050565b60006020820190508181036000830152611734816116f8565b9050919050565b7f4e487b7100000000000000000000000000000000000000000000000000000000600052601160045260246000fd5b600061177582610c89565b915061178083610c89565b92508282019050808211156117985761179761173b565b5b92915050565b60006040820190506117b360008301856110f1565b6117c060208301846111a5565b9392505050565b7f566f74657220616c726561647920726567697374657265642e00000000000000600082015250565b60006117fd601983610e0e565b9150611808826117c7565b602082019050919050565b6000602082019050818103600083015261182c816117f0565b9050919050565b600060408201905061184860008301856110f1565b818103602083015261185a8184610e1f565b9050939250505056fea2646970667358221220756cba65318bb4b48b401e96d20702f318e94717be6f5538d3daa3904359b47064736f6c63430008180033",
  "linkReferences": {},
  "deployedLinkReferences": {}
}